:020000040800F2
:100000007006002061010008850E0008590E0008E6
:1000100000000000000000000000000000000000E0
:100020000000000000000000000000008B0E00082F
:100030000000000000000000890E00088D0E00087E
:1000400073010008730100087301000873010008C0
:1000500073010008730100087301000873010008B0
:1000600073010008730100087301000873010008A0
:100070007301000873010008730100087301000890
:100080007301000873010008730100087301000880
:100090007301000873010008730100087301000870
:1000A0007301000873010008730100087301000860
:1000B00073010008730100087301000800F002F8E2
:1000C00000F03EF80CA030C8083824182D18A246BD
:1000D000671EAB4654465D46AC4201D100F030F895
:1000E0007E460F3E0FCCB6460126334200D0FB1AA7
:1000F000A246AB4633431847E00E0000000F000055
:10010000103A02D378C878C1FAD8520701D330C860
:1001100030C101D504680C60704700000023002442
:1001200000250026103A01D378C1FBD8520700D32E
:1001300030C100D50B6070471FB51FBD10B510BD95
:1001400000F07BF91146FFF7F7FF00F021FF00F008
:1001500093F903B4FFF7F2FF03BC00F099F9000034
:100160000748804707480047FEE7FEE7FEE7FEE74F
:10017000FEE7FEE704480549054A064B70470000C4
:10018000E70E0008BD000008700000207006002087
:100190007002002070020020FEB5054610460C4695
:1001A000184373D0AE468C460020AD1A01469C41E0
:1001B00067D36646002701243D46B61A9D4102D307
:1001C00013463A462124654676462F04360C3E43B4
:1001D0002D0CB61A9D4104D3150C1B042B4312049D
:1001E0001034654676462F06360A3E432D0AB61A67
:1001F0009D4104D3150E1B022B43120208346546A1
:1002000076462F0736093E432D09B61A9D4104D381
:10021000150F1B012B431201241D65467646AF07BF
:10022000B6083E43AD08B61A9D4104D3950F9B0016
:100230002B439200A41C65467646EF0776083E43A2
:100240006D08B61A9D411AD392185B41641C16E0E2
:100250000018764665464941B71A9D4101910090C4
:1002600009D36046B11A98418E4684460098019998
:100270000025401C6941DD0752082A435B08641EC3
:10028000E6D57246634603B0F0BDFFE700200146A5
:10029000C046C0462A462346F5E701E004C0091FD0
:1002A0000429FBD28B0701D50280801CC90700D02E
:1002B0000270704700290BD0C30702D00270401CA7
:1002C000491E022904D3830702D50280801C891E9F
:1002D000E3E70022EEE70022DFE7002203098B427A
:1002E0002CD3030A8B4211D300239C464EE00346D5
:1002F0000B433CD4002243088B4231D303098B4289
:100300001CD3030A8B4201D394463FE0C3098B42BE
:1003100001D3CB01C01A524183098B4201D38B0117
:10032000C01A524143098B4201D34B01C01A5241BA
:1003300003098B4201D30B01C01A5241C3088B42FF
:1003400001D3CB00C01A524183088B4201D38B00EA
:10035000C01A524143088B4201D34B00C01A52418C
:10036000411A00D201465241104670475DE0CA0F63
:1003700000D04942031000D34042534000229C4623
:1003800003098B422DD3030A8B4212D3FC2289012D
:1003900012BA030A8B420CD3890192118B4208D303
:1003A000890192118B4204D389013AD0921100E065
:1003B0008909C3098B4201D3CB01C01A5241830979
:1003C0008B4201D38B01C01A524143098B4201D3A6
:1003D0004B01C01A524103098B4201D30B01C01AD1
:1003E0005241C3088B4201D3CB00C01A524183084B
:1003F0008B4201D38B00C01A5241D9D243088B42A1
:1004000001D34B00C01A5241411A00D20146634643
:1004100052415B10104601D34042002B00D54942A7
:10042000704763465B1000D3404201B50020C046D0
:10043000C04602BD704770477047754600F024F80B
:10044000AE46050069465346C008C000854618B050
:1004500020B5FFF78FFE60BC00274908B64600268E
:10046000C0C5C0C5C0C5C0C5C0C5C0C5C0C5C0C564
:10047000403D49008D46704710B50446C046C04611
:100480002046FFF766FE10BD0048704710000020B0
:1004900001491820ABBEFEE726000200704772B685
:1004A00000BFFEE701480068704700000000002020
:1004B00003480068034909784018014908607047FB
:1004C000000000200800002010B506480068102138
:1004D000084304490860032000F006F800F02EF8F5
:1004E000002010BD0020024070B50446104801787D
:1004F0007D20C000FFF7F1FE064631460D4800683A
:10050000FFF7EBFE054600F08BFC002801D0012030
:1005100070BD042C07D200222146501E00F02EF898
:100520000548046001E00120F2E70020F0E7000048
:10053000080000200C0000200400002008B500BFC7
:100540000D488069012108430B498861084680698C
:10055000C007C00F009000BF00BF00BF0846C069C1
:10056000090408430449C8610846C06909040840F1
:10057000009000BF00BF08BD0010024070B50446E7
:100580000D4616462946204600F0C6FC70BD000008
:1005900070B504460D46002C01D1012070BD5848AD
:1005A0000068C007C00FA8420ED255480068400836
:1005B000400028435249086008460068C007C00F41
:1005C000A84201D00120E9E7022120680840022862
:1005D00014D1042120680840042807D14948406804
:1005E0000721090288434018464948604548406849
:1005F000F0218843A1680843424948602078C00739
:10060000C00F002847D06068012808D13D48006825
:10061000012149040840002821D10120BEE760687B
:10062000022808D1374800680121490608400028FF
:1006300015D10120B2E76068032808D13148406B2A
:10064000012149040840002809D10120A6E72D48CE
:10065000006802210840002801D101209EE72948B6
:100660004068800880006168084326494860FFF7B9
:1006700019FF064607E0FFF715FF801B2249884255
:1006800001D903208AE71F4840680C2108406168AF
:1006900089008842EFD11A480068C007C00FA842FD
:1006A0000ED91748006840084000284314490860E4
:1006B00008460068C007C00FA84201D001206DE7BE
:1006C000042120680840042808D10E48406807210A
:1006D00009028843E16808430A49486000F01AF8B3
:1006E00008494968F02211400909084A515CC8408C
:1006F000074908600320FFF7F7FE00204EE70000DF
:10070000002002400010024088130000C00F0008C3
:100710000C000020F8B5002500240027002600204A
:1007200000902B4845680C202840002849D0042818
:1007300004D0082805D00C2842D13EE0254800907E
:1007400042E00F2080042840800C23490E5C2048A2
:10075000C06A0007000F21490C5C0320C003284039
:100760000121090488420AD122460023194819466A
:10077000FFF712FD314600F0B7FB07461BE00320F0
:10078000C00328400321C90388420AD1224600231E
:1007900013481946FFF700FD314600F0A5FB074658
:1007A00009E0224600230B481946FFF7F5FC3146C5
:1007B00000F09AFB0746009706E00948009003E026
:1007C00000BF0448009000BF00BF0098F8BD0000C3
:1007D0000010024000127A00A00F0008B00F0008BD
:1007E000006CDC02FEB50446002C01D10120FEBDE8
:1007F0002078C007C00F002872D0FC4840680C2148
:10080000084004280CD0F94840680840082813D153
:10081000F6484068490308400121090488420BD189
:10082000F248006801214904084000286BD0606844
:10083000002868D10120DAE700BF6068012807D1ED
:10084000EA480068012109040843E849086031E0EA
:10085000606800280ED1E54800680121090488433A
:10086000E249086008460068012189048843DF499D
:1008700008601FE0606805280ED1DC48006801218F
:1008800089040843D9490860084600680121090421
:100890000843D64908600DE0D448006801210904E6
:1008A0008843D249086008460068012189048843CA
:1008B000CE49086000BF6068002812D0FFF7F2FD43
:1008C000054606E0FFF7EEFD401B642801D9032032
:1008D0008DE7C64800680121490408400028F1D08E
:1008E00011E0FFF7DFFD054606E0FFF7DBFD401BEB
:1008F000642801D903207AE7BC4800680121490433
:1009000008400028F1D1022120680840022862D165
:10091000B64840680C21084000280CD0B348406815
:10092000084008281CD1B14840684903084001210B
:10093000C903884214D1AD4800680221084000284C
:1009400004D0E068012801D0012050E7A7480068E2
:10095000F82188432169C9000843A44908603AE0A6
:10096000E068002820D0A1480068012108439F4981
:100970000860FFF797FD054606E0FFF793FD401B73
:10098000022801D9032032E7984800680221084074
:100990000028F2D095480068F82188432169C900F1
:1009A00008439249086016E09048006840084000FB
:1009B0008E490860FFF776FD054606E0FFF772FDF9
:1009C000401B022801D9032011E788480068022152
:1009D00008400028F2D1082120680840082831D1B9
:1009E000E069002817D08148406A012108437F4907
:1009F0004862FFF757FD054606E0FFF753FD401B31
:100A0000022801D90320F2E67848406A0221084012
:100A10000028F2D016E07548406A4008400073494B
:100A20004862FFF73FFD054606E0FFF73BFD401B30
:100A3000022801D90320DAE66C48406A0221084006
:100A40000028F2D1042120680840042872D1002037
:100A500001906648C0698906084000280ED100BF91
:100A60006248C06908436149C8610846C069090411
:100A70000840009000BF00BF012001905C48006862
:100A8000FF2101310840002816D159480068084369
:100A900057490860FFF706FD054606E0FFF702FD2F
:100AA000401B642801D90320A1E651480068FF21BA
:100AB000013108400028F1D000BFA068012806D10C
:100AC0004A48006A01210843484908622AE0A068B0
:100AD00000280BD14548006A41084900434801629B
:100AE000006A04218843414908621BE0A068052888
:100AF0000CD13E48006A042108433C49086208467C
:100B0000006A01210843394908620BE03748006A4E
:100B100040084000354908620846006A04218843BD
:100B20003249086200BFA068002813D0FFF7BAFC62
:100B3000054608E02BE0FFF7B5FC401B2D49884235
:100B400001D9032053E62948006A02210840002801
:100B5000F1D011E0FFF7A6FC054607E0FFF7A2FC85
:100B6000411B2448814201D9032040E61F48006A06
:100B7000022108400028F1D10198012806D11B4824
:100B8000C0690121090788431849C86100BF1021C5
:100B90002068084010285FD1606901282CD11348D3
:100BA000406B04210843114948630846406B01210A
:100BB00008430E494863FFF775FC054606E0FFF75A
:100BC00071FC401B022801D9032010E60748406B46
:100BD000022108400028F2D00448406BF8218843E5
:100BE000A169C90008430149486335E0001002408B
:100BF00000700040881300006069401D00280FD17C
:100C00008648406B04218843844948630846406B0A
:100C1000F8218843A169C9000843804948631BE063
:100C20007E48406B042108437C4948630846406B7A
:100C3000400840004863FFF735FC054606E0FFF733
:100C400031FC401B022801D90320D0E57348406BDA
:100C5000022108400028F2D12021206808402028E5
:100C600052D16E4840680C2108400C280AD06B48CD
:100C700040680840082811D1684840684903084086
:100C800088420BD16548406B012149040840002887
:100C90003AD0206A012837D00120A8E5206A002830
:100CA00019D05E48406B0121090408435B49486341
:100CB000FFF7F8FB054606E0FFF7F4FB401B0228B0
:100CC00001D9032093E55548406B012149040840B0
:100CD0000028F1D018E05148406B012109048843F5
:100CE0004E494863FFF7DEFB054606E0FFF7DAFBF7
:100CF000401B022801D9032079E54848406B0121B7
:100D0000490408400028F1D1606A00284FD04348C8
:100D100040680C210840082864D0606A022847D146
:100D20003E4800680121090688433C490860FFF7F6
:100D3000B9FB054606E0FFF7B5FB401B022801D9C9
:100D4000032054E535480068012149060840002881
:100D5000F1D100BF3148C06A00090001216B08438E
:100D60002E49C862A16AE06A08432C4949687B227F
:100D7000D203914308432949486000BF08460068F0
:100D800001210906084325490860FFF78BFB05464A
:100D900006E0FFF787FB401B022801D9032026E568
:100DA0001E4800680121490608400028F1D033E0C0
:100DB0001A48006801210906884318490860FFF7AE
:100DC00071FB054606E0FFF76DFB401B022801D9C9
:100DD00003200CE51148006801214906084000285D
:100DE000F1D119E0606A012800D100E50B4846689E
:100DF000C76A0320C0033040A16A88420AD139077C
:100E0000090F206B814205D10F2080043040E16A38
:100E1000884201D00120EAE40020E8E4001002400A
:100E200070B504462546681E0949884201D901204B
:100E30000CE0681E074948610321081F00F06CF8A8
:100E400000200449886107200861002070BD00006F
:100E5000FFFFFF0000E000E000BFFEE708B500BFB5
:100E6000074840690121490408430549486108468B
:100E70004069012149040840009000BF00BF08BD3F
:100E80000010024000BFFEE77047704710B5FFF743
:100E90000FFB10BD00B591B0342104A8FFF71BFA79
:100EA00000200090019002900390202004900120E7
:100EB0000C9000200D9004A8FFF794FC002801D0AE
:100EC000FFF7EDFA07200090032001900020029028
:100ED000039001216846FFF75BFB002801D0FFF774
:100EE000DEFA11B000BD7047F8B582B28BB2040CC7
:100EF0000D0C10465843002126465E43370C36043D
:100F00008019794116466E43370C360480197941B1
:100F100026466E438919F8BD10B5002819DB1A4A18
:100F200003231B02D21883089B00D2588307DC0ED0
:100F3000FF23A3409A438B071B0E8407E40EA340B4
:100F40001A43114B032424021B198408A4001A51CC
:100F500018E00E4A03071B0F083B9B089B00D25862
:100F60008307DC0EFF23A3409A438B071B0E8407E5
:100F7000E40EA3401A43054B0407240F083CA408C1
:100F8000A4001A5110BD000000E100E01CED00E0DB
:100F9000FFF79AFAFFF77EFFFFF760FF00BFFEE75B
:100FA00002030405060708090A0B0C0D0E0F1010AA
:100FB0000102030405060708090A0B0C0D0E0F10A9
:100FC00000000000000000000102030406070809F9
:100FD0000000000001020304F80F000800000020D8
:100FE0001000000000010008081000081000002098
:100FF000600600001C010008000000000400000062
:081000000100000000127A005B
:04000005080000BD32
:00000001FF
